:020000020000FC
:0200000045C0F9
:10008C000FEF0DBF00E10EBF2224EEECF2E0C0E159
:10009C00D1E0442742E0059109934A95E1F7E4EC5D
:1000AC00F2E0C2E1D1E0442742E0059109934A9580
:1000BC00E1F7000033D00000E6ECF2E0C0E3D1E061
:1000CC00442742E0059109934A95E1F7E8ECF2E008
:1000DC00C2E3D1E0442742E0059109934A95E1F748
:1000EC0000002ED00000EAECF2E0C0E0D2E04427A1
:1000FC0043E0059109934A95E1F7EAECF2E0C3E09D
:10010C00D2E0442743E0059109934A95E1F70000BA
:10011C0026D00000000040D00000FFCFA0E1B1E0ED
:10012C00C2E1D1E0E0E2F1E03D904990340C319233
:10013C003C904880341C319210F401E00083089507
:10014C00A0E3B1E0C2E3D1E0E0E4F1E03D904990FE
:10015C00341831923C90488034083192089522240E
:10016C00C3E0D2E0E6E0F2E013E0A0E0B2E023E08E
:10017C003D904880349C31904190030C141C30808D
:10018C00321C30821292029231962A9589F732975C
:10019C0021961A9551F708950027A0E4B1E0442761
:1001AC0042E00D934A95E9F70027A0E2B1E044271D
:1001BC0043E00D934A95E9F70027A6E0B2E0442707
:1001CC0046E00D934A95E9F7EEECF2E0C0E3D1E09E
:1001DC00442742E0059109934A95E1F7E0EDF2E0FE
:1001EC00C2E3D1E0442742E0059109934A95E1F737
:1001FC00A7DFE0E8F2E0C0E1D1E0442742E005915E
:10020C0009934A95E1F7E2EDF2E0C2E1D1E044272F
:10021C0042E0059109934A95E1F780DFE0E4F2E0D2
:10022C00C0E0D2E0442743E0059109934A95E1F7F9
:10023C00E0E4F2E0C3E0D2E0442743E00591099307
:10024C004A95E1F78CDF08953F924F921F920F92DF
:10025C002F92BF93AF93DF93CF93FF93EF931F93A3
:10026C002F932224C2E0D1E0E4E0F1E012E0A0E020
:10027C00B1E022E03D904880349C31904190030CD9
:10028C00141C3080321C30821292029231962A95C4
:10029C0089F7319721961A9551F72F911F91EF916C
:1002AC00FF91CF91DF91AF91BF912F900F901F9045
:1002BC004F903F9008950895FFFFB9FC20E4FFFF95
:0802CC00FF00BAFC1920BB2160
:00000001FF
