:020000020000FC
:0200000045C0F9
:10008C00222444270FEF0DBF00E10EBF03D020D078
:10009C000C949400ECE2F1E0C0E0D1E0222442E0C8
:1000AC0035904490440C331C221C4A95D9F7299264
:1000BC003882C3E0D1E04427222444E035904490B8
:1000CC00440C331C221C4A95D9F729923882089586
:1000DC00A0E0B1E03D904C90A3E0B1E06D917D913A
:1000EC00E6E2F1E0C9E2D1E0449C01921082779FF4
:1000FC000992188201D00895A6E2B1E0C9E2D1E0DC
:10010C00E0E0FEE03D904990340C31923C90488008
:10011C00341C319210F401E0008308950000FECFEE
:0C012C000141908E00001FF00000000058
:00000001FF
