:020000020000FC
:0200000045C0F9
:100004005AD0189566D0189572D018957DD0189549
:10008C000FEF0DBF00E10EBF0FEF07BB00EF01BB81
:10009C000AEA00936A000FE009BF09E703BF05BD38
:1000AC0050E658BB00E001BF03BD7894FFCF1EE1C2
:1000BC0034D041B74F3F31F001E1400F41BF43BD58
:1000CC00539558BB0FE008BF08951EE126D041B7E9
:1000DC00403031F001E1401B41BF43BD5A9558BB44
:1000EC000FE008BF08951EE118D041B74F3F0FEF46
:1000FC00400F41BF43BD5FE658BB0FE008BF0895FA
:10010C001EE10BD041B740300FEF401B41BF43BD48
:10011C0050EF58BB0FE008BF08951F9320EE3DEE43
:10012C003A95F1F72A95D9F71A95C1F71F910895C9
:00000001FF
